:1000000080850020652101004B190200512101006B
:100010005121010051210100512101000000000087
:10002000000000000000000000000000612301004B
:100030005121010000000000C122010051210100F6
:100040006D260100753A02006D2601006D26010043
:100050006D2601006D2601006D2601006D26010050
:100060002B3A02006D2601006D2601005F3A020066
:100070006D2601006D2601006D2601006D26010030
:100080006D2601006D2601006D2601006D26010020
:100090006D2601006D2601006D2601006D26010010
:1000A0006D2601006D2601006D2601006D26010000
:1000B0006D2601006D2601006D2601006D260100F0
:1000C0006D2601006D2601006D2601006D260100E0
:1000D0006D2601006D2601006D2601006D260100D0
:1000E0006D2601006D2601006D2601006D260100C0
:1000F0006D2601006D2601006D2601006D260100B0
:100100009FED177B70B5184A184D002342F220006E
:100110002021A97028806B76136082F82830AB719B
:1001200082ED027B85ED047B1C46EB71A9762B7674
:100130006A1802F814300134202CFAD101260C4838
:100140002E720BF037FE0B4B18700B4B1C700BF024
:10015000A1FEC5F8A00008F089FFEE7670BD00BFD3
:10016000FFFFFFFFFFFFFFFF88150020081600209C
:1001700069960000B81500208015002081F000412C
:1001800002E000BF83F0004330B54FEA41044FEA7C
:10019000430594EA050F08BF90EA020F1FBF54EA17
:1001A000000C55EA020C7FEA645C7FEA655C00F0B3
:1001B000E2804FEA5454D4EB5555B8BF6D420CDD84
:1001C0002C4480EA020281EA030382EA000083EA07
:1001D000010180EA020281EA0303362D88BF30BDA7
:1001E00011F0004F4FEA01314FF4801C4CEA1131FD
:1001F00002D0404261EB410113F0004F4FEA03335C
:100200004CEA133302D0524263EB430394EA050FE6
:1002100000F0A780A4F10104D5F1200E0DDB02FA55
:100220000EFC22FA05F2801841F1000103FA0EF2E9
:10023000801843FA05F359410EE0A5F120050EF1AF
:10024000200E012A03FA0EFC28BF4CF0020C43FAE0
:1002500005F3C01851EBE37101F0004507D54FF0ED
:10026000000EDCF1000C7EEB00006EEB0101B1F53D
:10027000801F1BD3B1F5001F0CD349085FEA300083
:100280004FEA3C0C04F101044FEA445212F5800F8E
:1002900080F09A80BCF1004F08BF5FEA500C50F12B
:1002A000000041EB045141EA050130BD5FEA4C0C0E
:1002B000404141EB0101013C28BFB1F5801FE9D26B
:1002C00091F0000F04BF01460020B1FA81F308BF8E
:1002D0002033A3F10B03B3F120020CDA0C3208DD5A
:1002E00002F1140CC2F10C0201FA0CF021FA02F135
:1002F0000CE002F11402D8BFC2F1200C01FA02F1A5
:1003000020FA0CFCDCBF41EA0C019040E41AA2BFC9
:1003100001EB0451294330BD6FEA04041F3C1CDA91
:100320000C340EDC04F11404C4F1200220FA04F0B1
:1003300001FA02F340EA030021FA04F345EA03015B
:1003400030BDC4F10C04C4F1200220FA02F001FA1D
:1003500004F340EA0300294630BD21FA04F029469F
:1003600030BD94F0000F83F4801306BF81F4801138
:100370000134013D4EE77FEA645C18BF7FEA655CAB
:1003800029D094EA050F08BF90EA020F05D054EA7D
:10039000000C04BF1946104630BD91EA030F1EBF82
:1003A0000021002030BD5FEA545C05D14000494186
:1003B00028BF41F0004130BD14F580043CBF01F579
:1003C000801130BD01F0004545F0FE4141F470015F
:1003D0004FF0000030BD7FEA645C1ABF194610463A
:1003E0007FEA655C1CBF0B46024650EA013406BF3B
:1003F00052EA033591EA030F41F4002130BD00BFFA
:1004000090F0000F04BF0021704730B54FF48064B6
:1004100004F132044FF000054FF0000150E700BF37
:1004200090F0000F04BF0021704730B54FF4806496
:1004300004F1320410F0004548BF40424FF0000183
:100440003EE700BF42004FEAE2014FEA31014FEAC6
:1004500002701FBF12F07F4393F07F4F81F0605115
:10046000704732F07F4208BF704793F07F4F04BF60
:1004700041F40021704730B54FF4607401F000453D
:1004800021F000411CE700BF50EA010208BF70479D
:1004900030B54FF000050AE050EA010208BF70478E
:1004A00030B511F0004502D5404261EB41014FF4F7
:1004B000806404F132045FEA915C3FF4D8AE4FF0FF
:1004C00003025FEADC0C18BF03325FEADC0C18BFE2
:1004D000033202EBDC02C2F1200300FA03FC20FA33
:1004E00002F001FA03FE40EA0E0021FA02F1144480
:1004F000BDE600BF70B54FF0FF0C4CF4E06C1CEA99
:1005000011541DBF1CEA135594EA0C0F95EA0C0F09
:1005100000F0DEF82C4481EA030621EA4C5123EA7C
:100520004C5350EA013518BF52EA033541F48011AB
:1005300043F4801338D0A0FB02CE4FF00005E1FB5E
:1005400002E506F00042E0FB03E54FF00006E1FBA8
:1005500003569CF0000F18BF4EF0010EA4F1FF04EB
:10056000B6F5007F64F5407404D25FEA4E0E6D412B
:1005700046EB060642EAC62141EA55514FEAC5203C
:1005800040EA5E504FEACE2EB4F1FD0C88BFBCF5B8
:10059000E06F1ED8BEF1004F08BF5FEA500E50F169
:1005A000000041EB045170BD06F0004646EA01012F
:1005B00040EA020081EA0301B4EB5C04C2BFD4EB61
:1005C0000C0541EA045170BD41F480114FF0000E5A
:1005D000013C00F3AB8014F1360FDEBF002001F0C8
:1005E000004170BDC4F10004203C35DA0C341BDC42
:1005F00004F11404C4F1200500FA05F320FA04F014
:1006000001FA05F240EA020001F0004221F0004147
:1006100010EBD37021FA04F642EB06015EEA430EBA
:1006200008BF20EAD37070BDC4F10C04C4F12005EA
:1006300000FA04F320FA05F001FA04F240EA02009D
:1006400001F0004110EBD37041F100015EEA430E6E
:1006500008BF20EAD37070BDC4F1200500FA05F28E
:100660004EEA020E20FA04F301FA05F243EA02030D
:1006700021FA04F001F0004121FA04F220EA02001C
:1006800000EBD3705EEA430E08BF20EAD37070BD62
:1006900094F0000F0FD101F00046400041EB010142
:1006A00011F4801F08BF013CF7D041EA060195F024
:1006B000000F18BF704703F00046520043EB0303DE
:1006C00013F4801F08BF013DF7D043EA06037047CB
:1006D00094EA0C0F0CEA135518BF95EA0C0F0CD0D6
:1006E00050EA410618BF52EA4306D1D181EA03011C
:1006F00001F000414FF0000070BD50EA410606BF16
:100700001046194652EA430619D094EA0C0F02D15A
:1007100050EA013613D195EA0C0F05D152EA03369F
:100720001CBF104619460AD181EA030101F00041BD
:1007300041F0FE4141F470014FF0000070BD41F006
:10074000FE4141F4780170BD70B54FF0FF0C4CF4E0
:10075000E06C1CEA11541DBF1CEA135594EA0C0FFF
:1007600095EA0C0F00F0A7F8A4EB050481EA030E4C
:1007700052EA03354FEA013100F088804FEA033333
:100780004FF0805545EA131343EA12634FEA022201
:1007900045EA111545EA10654FEA00260EF00041C2
:1007A0009D4208BF964244F1FD0404F5407402D214
:1007B0005B084FEA3202B61A65EB03055B084FEAA5
:1007C00032024FF480104FF4002CB6EB020E75EBA2
:1007D000030E22BFB61A754640EA0C005B084FEACA
:1007E0003202B6EB020E75EB030E22BFB61A754647
:1007F00040EA5C005B084FEA3202B6EB020E75EB92
:10080000030E22BFB61A754640EA9C005B084FEA09
:100810003202B6EB020E75EB030E22BFB61A754616
:1008200040EADC0055EA060E18D04FEA051545EA05
:1008300016754FEA06164FEAC30343EA52734FEAAE
:10084000C2025FEA1C1CC0D111F4801F0BD141EA27
:1008500000014FF000004FF0004CB6E711F4801F8C
:1008600004BF01430020B4F1FD0C88BFBCF5E06F6C
:100870003FF6AFAEB5EB030C04BFB6EB020C5FEA7C
:10088000500C50F1000041EB045170BD0EF0004ED1
:100890004EEA113114EB5C04C2BFD4EB0C0541EA03
:1008A000045170BD41F480114FF0000E013C90E600
:1008B00045EA060E8DE60CEA135594EA0C0F08BFC4
:1008C00095EA0C0F3FF43BAF94EA0C0F0AD150EAC3
:1008D00001347FF434AF95EA0C0F7FF425AF104656
:1008E00019462CE795EA0C0F06D152EA03353FF47E
:1008F000FDAE1046194622E750EA410618BF52EAFB
:1009000043067FF4C5AE50EA41047FF40DAF52EACE
:1009100043057FF4EBAE12E753B94AB9002908BF8B
:1009200000281CBF4FF0FF314FF0FF3000F00CB833
:10093000ADF1080C6DE904CE0BF0B8FCDDF804E075
:10094000DDE9022304B07047704700BF2DE9F007CE
:1009500091E8F807B2E802105B1854EB0C04B2E817
:1009600002104D4156EB0C06B2E802104F4158EB15
:100970000C08B2E8021059EB01095AEB0C0A80E8A6
:10098000F80780410130BDE8F00770472DE9F00716
:1009900091E8F807B2E802105B1A74EB0C04B2E8B5
:1009A00002108D4176EB0C06B2E802108F4178EB15
:1009B0000C08B2E8021079EB01097AEB0C0A80E826
:1009C000F80780414042BDE8F00770472DE9F00785
:1009D000524290E87800B1E880071740DB1918EA26
:1009E000020854EB080419EA020955EB09051AEA52
:1009F000020A56EB0A0678C090E87800B1E8800752
:100A000017407B4118EA020854EB080419EA02096E
:100A100055EB09051AEA020A56EB0A0678C080412E
:100A20000130BDE8F00770472DE9F007524290E829
:100A30007800B1E880071740DB1B18EA020874EB66
:100A4000080419EA020975EB09051AEA020A76EBAD
:100A50000A0678C090E87800B1E880071740BB41EB
:100A600018EA020874EB080419EA020975EB090593
:100A70001AEA020A76EB0A0678C080414042BDE8D5
:100A8000F00770472DE9F00152424FF0040890E85A
:100A9000300091E8C000A31B1340E41AF618EB1BCA
:100AA0001340ED1AFF1830C0C0C1B8F10108EED1F3
:100AB000BDE8F001704700BF00B592EC080AB1E84C
:100AC000805707EE101A53EC102A56EC114AA7FB78
:100AD0000251A8FB020BE7FB6310E9FB62B041EC9B
:100AE000145AA8FB0351EAFB6201E7FB64B5E7FB7C
:100AF0006605E8FB661505EE10BAA9FB03B6EAFB2E
:100B00006316ECFB6356E8FB640BE9FB641BEAFB32
:100B1000645BECFB646B05EE900AACFB023012EEFA
:100B2000104AEEFB6250E9FB6460EAFB64B0E7FB4D
:100B30006431E8FB645112EE904AE8FB6461E9FB22
:100B400064B1EAFB640106EE103AA7FB043213EE2F
:100B5000104AE7FB6462E8FB64B2E9FB6402EAFB6B
:100B6000641211EE904AE9FB6453EAFB646313EEEE
:100B7000904AE7FB64B3E8FB6403E9FB6413EAFB18
:100B8000642306EE905A17EE109A99E8000610EECC
:100B9000108AA9FB0854EAFB68B412EE108AECFB39
:100BA0006804EEFB6814E9FB6824EAFB683410EE85
:100BB000908AEEFB6865E9FB68B5EAFB680512EE12
:100BC000908AECFB6815EEFB6825E9FB6835EAFBCB
:100BD000684507EE106A11EE108AAEFB0876E9FB55
:100BE0006806EAFB681613EE108AECFB6826EEFB3B
:100BF0006836E9FB6846EAFB685611EE908AECFB22
:100C000068B7EEFB6807E9FB6817EAFB682713EE95
:100C1000908AECFB6837EEFB6847E9FB6857EAFB14
:100C2000686700BD2DE9F04F07EE900AFFF744FF1B
:100C300017EE908A07EE90BAA8EC084A88E8FF0001
:100C4000BDE8F08F00B591E89857A3FB0352A3FBD2
:100C50000401E3FB6420E3FB671042EC145AA3FB9E
:100C60000752E3FB6802E4FB6415E3FB6805E3FB62
:100C70006925A4FB07B6E3FB6926E3FB6A56E4FBA0
:100C8000670BE4FB682BE3FB6A5BE3FB6C6B40ECFC
:100C9000151AA4FB0810E4FB6950E3FB6C60E3FB4E
:100CA0006EB0E7FB6721E4FB6951E4FB6A61E3FB9B
:100CB0006EB1E4FB6E0106EE102AA7FB0832E4FBDE
:100CC0006A62E4FB6CB2E4FB6E02E7FB6E12E7FBC8
:100CD0006853E7FB6963E4FB6CB3E7FB6C03E7FB7A
:100CE0006E13E8FB6E2306EE905AA7FB0954E7FB50
:100CF0006AB4E7FB6C04E8FB6C14E8FB6E24E9FBC8
:100D00006E34E8FB6865E7FB6AB5E8FB6A05E8FB5B
:100D10006C15E9FB6C25E9FB6E35EAFB6E4507EEC9
:100D2000106AA8FB0976E8FB6A06E9FB6A16E9FB8C
:100D30006C26EAFB6C36EAFB6E46ECFB6E56E8FB73
:100D400069B7E9FB6907E9FB6A17EAFB6A27EAFB6F
:100D50006C37ECFB6C47ECFB6E57EEFB6E6700BD2F
:100D60002DE9F04F07EE900AFFF76CFF17EE908A1F
:100D700007EE90BAA8EC084A88E8FF00BDE8F08FBB
:100D800030B44FF0000310F8014B11F8015B013A49
:100D900084EA050443EA0403F5D1A3F101034FEA11
:100DA000D37030BC704700BF4FF0000310F8012B28
:100DB000013943EA0203F9D1A3F101034FEAD370E9
:100DC000704700BF30B411F8014B12F8015B6C4062
:100DD00000F8014B013BF6D130BC70472DE9F0071C
:100DE00091E8F807B2E802105B1854EB0C04B2E883
:100DF00002104D4156EB0C06B2E802104F4158EB81
:100E00000C08B2E8021059EB01095AEB0C0A8941AF
:100E1000B3F1FF3374F1FF3475F1FF3576F100065D
:100E200077F1000778F1000879F101097AF1FF3ACA
:100E300051F100015B184C414D4156F1000657F14C
:100E4000000758F1000859EBD1795AEB010A80E804
:100E5000F807BDE8F00770472DE9F00791E8F807BB
:100E6000B2E802105B1A74EB0C04B2E802108D4178
:100E700076EB0C06B2E802108F4178EB0C08B2E872
:100E8000021079EB01097AEB0C0A89415B184C419D
:100E90004D4156F1000657F1000758F1000859EB93
:100EA000D1795AEB010A80E8F807BDE8F0077047EE
:100EB00018EB040859EB05095AEB060A5BEB070B24
:100EC0005FF0000C4CF1000C18EB050859EB06091B
:100ED0005AEB070A5BEB070B50EB0C005FF0000CC2
:100EE00051EB0C0152EB0C0263414CF1000CB8EBDE
:100EF000070879F100097AF1000A7BEB040BA8419D
:100F0000B141A241B3416CF1000CBBEB050BB04108
:100F1000B941AA41BB416CF1000C4CF001068CF0C8
:100F2000020718EB060859EB6C095AEB6C0A7BEBCD
:100F30006C0B70EB6C0471EB6C0572EB670653EB9A
:100F40006C076CEB6C0C18EB0C0059EB0C015AEBBA
:100F50000C025BF1000354F1000455F1000556EB5F
:100F6000DC7657EB0C0770472DE9F04F07EE900A3F
:100F7000FFF7A2FD59EC168A17EE10AAFFF798FFAB
:100F800059EC148A5BEC15AAFFF792FF17EE908AD2
:100F900088E8FF00BDE8F08F2DE9F04F07EE900ADA
:100FA000FFF750FE59EC168A17EE10AAFFF780FFE4
:100FB00059EC148A5BEC15AAFFF77AFF17EE908ABA
:100FC00088E8FF00BDE8F08F2DE9F3472C4F00F1D2
:100FD00007080D1E7B788DF8043028F00708BB78D1
:100FE0008DF80530064601A90CBF4046002000F0F0
:100FF000EFFB7B7808EB000497F800804FF0000AC5
:1010000098445FFA88F8D1465FFA8AF343452DD3B6
:10101000E31C23F00304002D49460CBF20460020AA
:1010200000F0E6FCB978204471B1C31C23F003043E
:10103000FA7BFB78002D1A44D2B27B890CBF204684
:10104000002000F049FD2044397B59B1BA784AB1FB
:10105000C31D23F00704002D0CBF2046002004F020
:10106000ABFE2044801B02B0BDE8F0873B7AFA79E2
:10107000B97978790BF0C3FF0AF1010A8144C3E71B
:10108000780900208FB572B6194B9D6AE5B9BFF398
:101090004F8F1849184BCA6802F4E0621343CB60C3
:1010A000BFF34F8F00BFFDE7B4FBF6F4DAB20133B4
:1010B000002CF9D102F110036B440A2603F80C4C02
:1010C00032B901A8A847E2E7044600230A26EDE763
:1010D000531E04AC54FA83F4DAB2C3B2B3FBF6F78E
:1010E00006FB1733303304F80C3CB0FBF6F0E7E7AF
:1010F0007809002000ED00E00400FA051FB5104B50
:101100001A7A8DF80920DA798DF8082002A89A79E0
:101110005B79ADF80C20ADF80A3003F0D7FA18B1BE
:10112000B5210320FFF7AEFF012301A88DF804309D
:101130000DF0DDFA08B1B921F3E705B05DF804FB65
:101140007809002038B5054680B30AF087FD10B94C
:101150004FF0FF3038BD07F0F3FBB0F5FA7FF7D85A
:10116000154C1648A562002500F0ECF92622294608
:10117000204684F82C5084F82D500BF025F80123DC
:101180006370A3701B23637140F21B33E38002235F
:1011900023721F23638108232373EFF3108472B635
:1011A00000F072FD2CB962B62046D3E76FF015004F
:1011B000D0E72846CEE700BF78090020FD100000E8
:1011C00010B5002837D1204C94F82C3083BB59B18E
:1011D000002A33D0023905292DD8DFE801F00310A9
:1011E0001E2C21241378637001210020FFF7ECFEF0
:1011F000B0F5803F25DA012384F82D3010BD9378B7
:10120000E3B1D378D3B113781A2B17D953781A2BAB
:1012100014D91368C4F80530E6E71378A370E3E740
:1012200013886381E0E71388FF2B07D82373DBE77C
:101230004FF0FF30E2E76FF02C00DFE76FF01500B2
:10124000DCE76FF00B00D9E77809002070B50D4698
:101250000646F0B1E9B111F007041AD100F0B0F878
:10126000D0B130460AF0A6FD0D4E214686F82E007C
:101270002846FFF7A9FE0EF02EFC96F82E00214618
:1012800003F0B8FAFFF73AFF012386F82C30204626
:1012900070BD6FF01500FBE74FF0FF30F8E700BFBF
:1012A0007809002010B5084C94F82C302BB103F0CD
:1012B000B9FA94F82E000AF099FD0BF08DFF00208A
:1012C00084F82C0010BD00BF7809002050B1074BF6
:1012D00003F1140253F8041B40F8041B9342F9D1A4
:1012E000002070476FF01500704700BF0C800200AF
:1012F000074B93F82D2010B532B993F82C401CB948
:1013000003F042FA204610BD4FF0FF30FBE700BF6C
:1013100078090020074B93F82D2010B532B993F8C7
:101320002C401CB903F044FA204610BD4FF0FF30AA
:10133000FBE700BF78090020074B93F82D2010B57C
:1013400032B993F82C401CB903F0EAF9204610BDDD
:101350004FF0FF30FBE700BF78090020074B93F800
:101360002D2010B532B993F82C401CB90DF0D5F9E9
:10137000204610BD4FF0FF30FBE700BF780900208A
:10138000074B93F82D2010B532B993F82C401CB9B7
:101390000DF0C6F9204610BD4FF0FF30FBE700BF4F
:1013A0007809002007C8024B83E807000020704737
:1013B000A8090020014B9B68184700BFA80900201E
:1013C000024B9868003818BF01207047A809002018
:1013D0002DE9F341284E031D04463360304604F0E6
:1013E00077F80228054607D1234920460BF0CDF8AF
:1013F000284602B0BDE8F081042836D13378072BA7
:1014000018D13E2000F04EF878B9F378327901A96E
:1014100043EA02236846ADF800300BF099FB002840
:10142000DCD053210820FFF72DFE052000F07AF8CC
:101430000028EAD0314620460BF00EF9B0F5817F46
:1014400001D37221EEE70028C8D0277894F80280F3
:10145000384600F027F80028C0D03E2FC8D14046BB
:1014600000F060F80028C3D1B8E70828C0D10249CD
:1014700020460BF0B9F8BBE7B4090020074B4FF04A
:10148000FF3141F6FF72C3E9001205490022C1E9AC
:1014900000221F21C3E90212704700BF0000002094
:1014A000F80900203F280CD801380B4BC0F342123A
:1014B00000F01F0053F8223023FA00F000F0010082
:1014C0007047FF2806D04038C0F34212034B00F0AB
:1014D0001F00EFE70120704700000020F8090020FE
:1014E0000146074B006849681A4603C240F48C2243
:1014F0001A6041F0107242F4FF625A60704700BFF8
:10150000000000200246024B0068516803C3704788
:10151000F80900200246024B0068516803C3704777
:10152000080000200138064BC0F3421203EB82038F
:1015300000F01F009B6823FA00F000F001007047E4
:1015400000000020014B1860704700BF000A002017
:1015500007B5FFF793FF0CF03FFD044B1B6813B179
:1015600001909847019803B05DF804FB000A002041
:101570000B880288F0B5C3F30E049EB204F1180381
:10158000C57CC35A05352A442B4497B213FA82F31B
:10159000013B4288B3FBF7F313FB07439BB29A422C
:1015A000044A93BF22EA0603324013439BB20B80E6
:1015B000F0BD00BF0080FFFF10B5114B00EB4104F0
:1015C0001A786389B3FBF2F303FB0223013A1A444E
:1015D000B2F5706F027928BF00231A448378B2FBFA
:1015E000F3F0194403FB1020091AB1FBF3F003FBDD
:1015F000101313446FEA43436FEA5343638110BDF2
:10160000040A002010B5104BC0B15A78022A04D049
:1016100040F259111720FFF735FD03225A70026876
:1016200012F0070102D04FF4AF71F3E75C685A6023
:1016300022440260C3E903119A6010BD0122C3E98C
:1016400001005A70F9E700BF040A00202DE9F041BB
:10165000254E96F801E00EF0FD0CBCF1010F04D010
:1016600040F273111720FFF70DFD91F80680B8F1D5
:10167000080F02D940F27511F4E7CF7997B34546C8
:10168000022D726838BF02257B1D5C0002EB43030C
:101690006A1E13446D422B408D884544013DC8F1BC
:1016A00000022A404FF6FE75AA4202D94FF4C071DB
:1016B000D8E7BEF1030F12D106EB80001C1BC568F2
:1016C00015B140F28511CDE7C460A770228084F87F
:1016D00003C0087A09682071080CE080218107FBAB
:1016E00002337360BDE8F081040A00202DE9F04167
:1016F000364C6378012B65D0032B04D040F2951152
:101700001720FFF7BFFCD4E901329A4202D04FF410
:10171000CC71F5E7A44600235CF80C6F23701D46DE
:1017200001229E465CF82210571E49B108798A783A
:10173000FF2829D181F804E095423CBFD5B20123AE
:101740000022002FEED003B12570256925B30026B5
:1017500040F6FF67AB78F1B28B421DD905EB410330
:1017600028465F81FFF728FF0136F3E776B196F848
:10177000048080450CD1B0780244FF2A0AD903B115
:1017800025704FF49A71BBE7002FEFD00020F3E7EC
:101790003846F1E70871CFE7E56875B1002640F6F5
:1017A000FF67AB78F1B28B4207D905EB41032846BE
:1017B0005F81FFF701FF0136F3E704236370002028
:1017C000BDE8F081022360686370F9E7040A002035
:1017D000F0B585B01B4E009004460D4630B17378CD
:1017E000022B02D00020FFF7F3FF6846FFF70AFF45
:1017F000154A2B78019208274FF43872002001A96E
:10180000ADF808208DF80B308DF80C008DF80A70BB
:10181000FFF71CFF6B780D4A01928DF80B304FF4E7
:101820008872FF2301A90120ADF808208DF80C3043
:101830008DF80A70FFF70AFFFFF758FF7068001B6A
:1018400005B0F0BD040A002079FA000009D30000B9
:10185000F8B54FF6FF730380184B03EB8101054683
:10186000C868B8B186780379B3FBF6F206FB123389
:10187000DBB219460A1D00EB4202B2F9027054882D
:10188000002F09DB0131B1FBF6F206FB1211C9B2E0
:101890008B42EFD10020F8BDFF29FBD0C4F30E032B
:1018A000C4782B8024B940F2C7211720FFF7EAFB48
:1018B0005380BDE8F8400BF081BB00BF040A002054
:1018C0001E4B03EB810170B5CC6805464CB3B0F5F7
:1018D000706F04D340F2D5211720FFF7D3FB0146E8
:1018E00020460BF04DFBFF28014604D02046BDE802
:1018F00070400BF063BBA078B5FBF0F300FB135313
:10190000DBB219460A1D04EB4206B6F90260002E4E
:1019100009DB0131B1FBF0F200FB1211C9B28B42BD
:10192000F0D1002070BDFF29FBD08B4204EB4202B6
:101930001CBF0023E3705580D8E700BF040A0020D5
:10194000094B03EB810110B5CC68014620460BF032
:1019500017FBFF28014604D02046BDE810400BF0DD
:101960002DBB002010BD00BF040A00200F4B03EB6D
:10197000810170B5CC680646014620460BF000FB9D
:10198000FF28054610D0014620460BF017FBE288E1
:101990002389014643EA02433046984720462946B8
:1019A000FFF70AFE002070BD0320FCE7040A0020B8
:1019B00038B50E4B827903EB82030446D86808B928
:1019C000022038BD8278E1799142F9D24B1CE37153
:1019D00000EB41035D89B3F90A30002BF3DBA580EE
:1019E0000BF0ECFA20600020EBE700BF040A0020B7
:1019F00070B5044610F003000E4603D049211820AC
:101A0000FFF740FB0BF061FA054624B1034831466D
:101A100004600BF05AFA284670BD00BF180A002077
:101A20002DE9F04F1E4C85B092462268BDF83CB0BF
:101A300098468146BDF838300D461AB95B2118200A
:101A4000FFF720FB1A460A21504603930BF0E8F8F3
:101A50005A460646092140460BF0E2F8311807467F
:101A600020680BF05CFA039BC9F8000018B92860E5
:101A700005B0BDE8F08F84192C60D9F80000009300
:101A8000524631460A230BF07DF82868CDF838B06D
:101A900009234246394605B0BDE8F04F0BF072B855
:101AA000180A002070B50E4604460BF0C2F8054631
:101AB00030460BF0BEF8044B2A1821461868BDE8E2
:101AC00070400BF056BA00BF180A0020014B18688E
:101AD0000BF018BA180A0020F8B511441D4EC9B20F
:101AE00010F00305317003D04E210920FFF7CAFA28
:101AF0001F2B19D89B009BB2033323F003039BB227
:101B000008B17060338101EB81047668E2004FF028
:101B1000010C00EBC404EFB2B94212D8D01D03FB94
:101B2000010020F00700F8BDFF2B4FEA430204D963
:101B3000FF339342DFDB93B2DEE77C2AFBDC7C23BE
:101B4000DAE710B186F800C07460013528361C440D
:101B5000E1E700BF1C0A002038B5144A1478536826
:101B60000021C8B2844203D8A9210920FFF78AFACC
:101B70001846013105782833002DF2D0012412894E
:101B800044700021446881708161C161920800F154
:101B90002001051D21F8022B994245F8044B1444FD
:101BA000F8D100234361037038BD00BF1C0A002038
:101BB0002DE9F8434B7880460C4602F0040602F00B
:101BC000FB07D3B1DFB12F4BD4F804901D89BFBB05
:101BD00001236370AD08A761E76104F120034A4661
:101BE000211D04F1280023F8025B984241F8042BE0
:101BF0002A44F8D10023636101E0002FE3D0002ED6
:101C00004FF0FF0318BF0226A370A3191B7D032BFF
:101C100003D1022F1CBF0136F6B2A31901221A7597
:101C200006F10C0204EB8606002324F812307268D9
:101C3000A370C8F80020A8F804304046BDE8F88337
:101C4000002114226170A0180AF0BEFAB5F5FF7FDA
:101C50000FD26B08ED1AADB209EB0502C4F804907F
:101C60002584A2606384C4F80C90A5842261E38477
:101C7000C5E7B5F5EE6F4FF0FF03EBD940F27265A3
:101C8000EAE700BF1C0A0020134B012200214FF09D
:101C9000FF309A60C3F80012C3F80803C3F80015B8
:101CA000C3F804259A60C3F80803C3F80015C3F805
:101CB00004250A490A4A03F580334FF40040C3F86B
:101CC0000825C1F88000BFF34F8FBFF36F8FC1F8B5
:101CD0008001C3F80825704700F0004000E100E0F3
:101CE0000000F63F0A461A2302F8033B0448C36883
:101CF000C1F803300369536043699360704700BFC4
:101D0000280A0020024B5A8C02435A845B6A184707
:101D1000280A0020014B00215B6A1847280A00208E
:101D200010B5114C05F0AAFF05F008FC208DFFF757
:101D3000F1FF237E6BB122460C4952F80C3BE36065
:101D400063685360A368936004F1190002220DF0E8
:101D5000E8F9E36A94F82A1094F82B0098470023D6
:101D600084F8303010BD00BF280A0020E51C0000B8
:101D7000034B93F830300BB1FFF7D2BF704700BF71
:101D8000280A002070B51D4CA56B236CE36395F801
:101D9000A330064694F844000BB1031DD8B295F861
:101DA0006D102EB9FF2803D195F86C308B4201D00D
:101DB00005F02EFE95F8A330D3B1A06C06F0E0F844
:101DC000012384F86830D5E94023A16CE06BC4E9B5
:101DD000182305F071FB16B9304606F00FF995F897
:101DE0006C10002006F054F9022384F8303070BDE6
:101DF000E06B06F0C5F805F0A1FBECE7280A00202F
:101E00002DE9FF41414C94F83030A66B012B05467B
:101E10000F465FFA83F804D040F25C412720FFF7B9
:101E200031F996F890303BB1002186F890100420EB
:101E3000FFF768FF86F89280A16F0B7803F0030329
:101E4000032B05D196F8963013B90220FFF75AFFFD
:101E5000A26F137803F00303032B03D05378002BF6
:101E60003FD1012386F8963096F8A330BBB1D6E96E
:101E70004001A36B94F844200392C4E918014FF089
:101E8000010893F86D0084F868800BF0A7F9002131
:101E900003460091039A1E49404605F0C7FADDB992
:101EA000D7B1E36F28469847B0B194F82A309BB970
:101EB00094F88030D906C3F300125CBF236C1D7800
:101EC000D4F884305CBFC5F30015C5F1010553B9E2
:101ED000B4F888303BB132B904B0BDE8F041FFF747
:101EE0001FBF0223BEE7638C9A0709D5A36FDB7877
:101EF000022BF1D1002004B0BDE8F041FFF742BF52
:101F0000002DE9D1002BF5D0E6E700BF280A00201C
:101F1000780A002008B5094B93F83020022A04D033
:101F200040F23D212720FFF7ADF8DA7A42F00102B6
:101F3000DA72BDE80840FFF7F3BE00BF280A0020B0
:101F4000044B93F8302002F0FF000AB9187670476E
:101F50000C207047280A00200A4B0B4A70B5064631
:101F60000D461A60FFF7ECFF18B1DF212720FFF7BD
:101F700089F8064C012104F18A000CF0C2FF2664A6
:101F8000A56470BD400000202C270000280A002016
:101F9000024B012283F8AC20704700BF280A0020C2
:101FA000F0B5804C85B002AE86E8030094F830109E
:101FB0000A9F01F0FF0511B90AB103B127B94FF427
:101FC000A8712720FFF75EF896E8030004F1340CAF
:101FD0008CE8030084F8AC5084F82A5084F8AD50A3
:101FE00084F82B5084F8AE5065842585A56BE36793
:101FF0006262E76205F04AFD05F0A0FA95F970000B
:1020000005F0D0FD686A05F0ADFFE86905F0D0FD88
:1020100095F8B30005F0F2FDA36B93F80C320BB109
:1020200005F022FD95F86D10012005F0B7FE00289F
:1020300000F0B5805C4B5D4E186805F099FF2B6988
:10204000C4F8B0306B69C4F8B43005F58C7705F589
:10205000847318685968324603C20833BB42164677
:10206000F7D1D5F81821C4F869205A68504B5A6046
:10207000A36B93F89D20A2F12501012993F86C1020
:102080000E4603D993F89E00252854D193F8B63212
:102090002BB1012E03D0012B14BF0226012605F11E
:1020A0003407314638460DF0D0F831460CF066FD65
:1020B000B5F8403095F86D10984228BF184684F85E
:1020C000B80038460DF0AAF895F86D1095F8A37091
:1020D000B5F84860082908BF04210CF04FFD0FB97E
:1020E000043080B2B04228BF304695F8A330C6B263
:1020F00084F8446093B1D5E9402395F86D00012739
:10210000C4E9182384F868700BF068F800220346CD
:10211000009226493246384605F088F90120FFF73B
:1021200031FE244BD3F8503523F00803032B2AD17A
:102130004FF4FD7145E7203A012A0CD8232893F883
:102140003E210AD012F0010319D19207A7D5012927
:1021500018BF0226A3E723280DD193F83E2193F858
:102160006530134013F001020BD19B0797D501296D
:1021700008BF0E46ECE7042908BF08268FE71E4675
:102180008DE716468BE7002323606360A360B5F8F4
:10219000943063802B88238095F8B330237105B089
:1021A000F0BD00BF280A002040000020780A00206F
:1021B000910A00200010004008B50C4B93F8302025
:1021C0001AB9BDE80840FFF7ABBD93F83020022AEA
:1021D00004D040F213212720FEF754FF9B6BD3F865
:1021E0002002BDE8084005F0DDBE00BF280A00203F
:1021F000014B1876704700BF280A0020014B93F866
:10220000AE007047280A0020024B188DC0F38020D2
:10221000704700BF280A0020014B93F8AD007047BB
:10222000280A00202DE9F3411E4D8207AC6B0646BB
:102230000F4622D5D5F8843023B940F24D412720EE
:10224000FEF720FFB5F88820E96B1846033291F8B5
:10225000018009F043FF0DF1020201A9E863D5F8FE
:10226000B4000AF028FE01980AF00FFE012238603F
:102270004146D5F8B4000AF0B4FDF3070ED5D4E911
:102280004032013342F10002C4E9403294F8983000
:10229000012B0CBF0023012384F8983002B0BDE865
:1022A000F08100BF280A00202DE9F04F9C4C00234C
:1022B00087B0CDE9043394F83030A76B022B814608
:1022C000884604D040F2CF412720FEF7DBFE238D65
:1022D0005B0606D44020FFF71DFD238D43F040032D
:1022E000238597F8A330B9F1000F00F00A81A3B15C
:1022F00005F052F905F036F978B9E36B5A7862B116
:102300001B7897F89820C3F3C0039A4205D10123A4
:1023100084F82B30FFF704FD47E1E36B5978A4F80C
:10232000881011B3D4F8B4000AF031FDC4F8840069
:10233000238D97F8972043F480732385E36B1B78F4
:10234000C3F380039A4200F0B180A56B95F89630F4
:10235000002B3ED0022B12D1D4F8B00004A90AF011
:10236000ADFC28B940F2CB31AEE7C4F88410DFE70A
:10237000D5E93E32013342F10002C5E93E3295F81B
:102380009230002185F8961023B185F89210102024
:10239000FFF7B8FC95F891309BB1002685F8916065
:1023A00002F014FC10B940F2E2318DE7314608200A
:1023B000FFF7A8FCD5E93E32013342F10002C5E93E
:1023C0003E3295F89730012B0CBF0023012385F88E
:1023D0009730238D43F4806323854FF0000BE16B2E
:1023E00097F898200D78C5F3C0039A427ED105F086
:1023F0000305032DA66B5BD0002D64D196F89830B1
:10240000013B18BF012386F89830E36B5B7833B14A
:10241000D6E94032013342F10002C6E9403297F872
:10242000A23093B1D7E93E01A36BC4E9180100269D
:1024300093F86C0084F868600AF0D0FE3949009681
:102440000346FB22304604F0F1FFB8F1000F6BD1D8
:1024500094F8AD30012B67D8E36F0120984700282E
:1024600062D094F82AA0BAF1000F5DD1A66B94F85F
:10247000443096F8A3208DF80D80002A40F0988013
:10248000FF2B96F86C1003D196F86D308B4202D07A
:10249000FF2005F0BDFA96F89630032B00F22F814D
:1024A000DFE813F089000E0111012401CB4696E705
:1024B000238D012043F4006386F890002385FFF705
:1024C00021FC00259AE74B78002BFAD0228DD4F816
:1024D000845042F400622285002DA0D0FB2B07D847
:1024E00094F8AC305BB12020FFF714FC002596E790
:1024F00094F82A3043F0100384F82A30F6E74D466A
:102500007CE70BB105F07EF894F8AD30013384F828
:10251000AD30238D002543F400732385AB467EE761
:10252000280A0020780A002005F0D2FD4FF00108AB
:102530001DB105A90220FFF775FEBBF1000F0DD0FC
:10254000B4F80720B4F805301343B7F894201343C8
:102550001EBFB4F809300133A4F80930B9F1000FF7
:1025600000F0D580B4F805300133A4F8053000231D
:1025700084F8AD30694803F059FB049840B10AF083
:1025800084FCA16B00234372082201300CF0B7FDDC
:10259000059B33B1A16B00221A72059810220CF032
:1025A000AEFDB8F1000F7FF4B5AE07B0BDE8F08F17
:1025B0000433DBB264E794F8B830ADF80E30584815
:1025C000A6F85C3002F0F2FA00285DD0A16F8020FE
:1025D000FFF798FB012386F8913096F89730A26FA9
:1025E000DB0003F00801137803F0F3030B4396F8C4
:1025F0009810890001F004010B4323F0100103F04F
:102600000303032B117002D1D378022B0FD0D4F81F
:10261000B0000AF09BFB40B9A36F1B7803F00303E3
:10262000032B04D002F0E8FA08B94FF0100AA06FAB
:1026300003784AEA030A80F800A096F8A230002B3B
:1026400060D04378002B5DD0A06C05F099FC00238E
:1026500084F86830D6E93E23A16FA06CC4E9182342
:1026600004F02AFF96F86D10012005F011FDA26F0D
:102670001188A4F8801091782A4A012384F8AE309A
:10268000917084F8303053E7D4F8B0000DF10D02AA
:102690000DF10E010AF0EFFAA06788B196F8DB3071
:1026A00073B99DF80D302BB903808370A06F0121A1
:1026B0000CF027FCBDF80E10A06F0CF0EFFC8CE7BF
:1026C000194BA36789E7B6F85C30D4F8B000ADF8D1
:1026D0000E300DF10D020DF10E010AF0CCFAA067DB
:1026E00000287FF47AAF40F2D621EDE50C4802F0E5
:1026F0005DFA00287FF471AF40F2DF21E4E54FF48A
:102700003B71E1E505F03CFC04F018FFAAE7B4F8E2
:1027100007300133A4F807302CE700BF5C0A002023
:10272000A00A0020A80A0020B20A0020151F0000FD
:10273000A9220000011E0000711D000038B5074DE0
:10274000044600F1510128680CF050FB94F8501039
:102750002868BDE838400CF057BB00BFE40A0020F1
:10276000F8B504460E466588407F15F0040508BF9D
:102770002946134618BF04F15F01324602F0F2FB0E
:10278000C20705460BD5012384F85030607F02F064
:102790004DFC0368C4F851308388A4F85530AB076A
:1027A0000CD5094E0127306884F85E7004F15F0192
:1027B0000CF023FB306839460CF02FFB85F0040049
:1027C000C0F38000F8BD00BFE40A002038B5C38D17
:1027D0000E4D0133C385AB7C04462BB105F03EFCA6
:1027E00004F0CCFD0023AB7400232B7194F8693006
:1027F0002BB101212046BDE838400BF04CB9637C79
:1028000013B1E28D9A42F4D20021F3E7E40A0020EA
:1028100070B5294C2379022B07D02379032B04D0E0
:1028200040F6EC412D20FEF72DFCA0B90125A37C3C
:102830001BB105F013FC04F0A1FD002D3AD0E069B6
:102840000BF0A1F8002830D005F018FA236ABDE893
:1028500070409B6818472168E26911F8095B02F132
:102860005103E80992F850200CF0B2F80028DDD0AE
:10287000206800210CF0F7FA0028D7D02379E0690E
:10288000022B05D02379032B02D040F6C541C9E7BE
:102890002379226A03F180435269023B05F00F015C
:1028A00052F8233098470546C1E7E069BDE870401B
:1028B000FFF78CBF70BD00BFE40A00202DE9F04196
:1028C00004460E4619B300F1280528460AF097FE83
:1028D000A0B963881A072DD528460AF0A7FE074637
:1028E00028460AF08CFE381AC0B20AF0AFFE594AE8
:1028F00093681844906028460AF05DFE28460AF066
:102900005FFE05F07BF92179252005F081F8514D16
:1029100094F85E702868002303806388103B0D2BB9
:1029200061D8DFE803F05E605A0C603F6060606071
:102930006060603F2046BDE8F041FFF747BF0021DF
:1029400002F080FC2A68137823F0200343F0200370
:1029500013702046FFF7F2FE638823F008039BB252
:10296000152B05D094F83820616B28680CF05CFAC0
:10297000286805F005FB04232B7136B16388102B02
:1029800036D12179002005F03FF96388103B0D2BEB
:102990005AD8DFE803F05C595353595359595959E0
:1029A00059595953012102F04DFC2868037823F04E
:1029B000200343F02003037047B104F15F010CF0E2
:1029C0001CFA012128680CF028FAC2E704F158012A
:1029D0000CF013FA94F85710F4E7062102F032FCD9
:1029E000B7E70221FAE740F249612D20FEF74AFBE2
:1029F00004F128084046EF680AF018FE06464046F3
:102A00000AF0FDFD013E301A61882822C0B200F0B4
:102A1000A5FC63881B07074406D5AB681F440AF072
:102A200012FE3844C4F8D00022793946002005F05F
:102A30001DFA0028A9D140F66151D6E7217901207D
:102A4000BDE8F04105F024BB40F67551CDE7BDE887
:102A5000F08100BFE40A002038B54388102B0446FB
:102A600004D1BDE838400121FFF728BF0B4DAB7CF6
:102A700023B104F069FC402005F0E4FA286805F071
:102A80007FFA608810F0040002D1217905F000FB84
:102A9000002005F0B3FA02232B7138BDE40A0020B0
:102AA000024B0121D869FFF709BF00BFE40A0020EB
:102AB00010B5134CA37C1BB105F0D0FA04F05EFCFA
:102AC000E0690AF060FF70B12379E069022B0FD151
:102AD0002379226A03F18043D268023BBDE81040AB
:102AE00052F823301847E069BDE81040FFF76EBE8A
:102AF0002379032BECD040F6F4312D20FEF7C2FAF7
:102B0000E40A002018B1084BD869FFF75FBE51B145
:102B1000054A1379116AD069096903F18043043BBE
:102B200051F8233018477047E40A00202DE9F0439C
:102B3000032985B0054690467ED090F8683003F0B2
:102B4000FF02002B7DD1052904D16B88D8075FD502
:102B5000002A5DD10127DFF8F09099F81260B6B134
:102B60000BF06BFF082888F8000014D002AA0DF1C2
:102B7000070102F0C7F920B940F63D712D20FEF79C
:102B800081FA9DF8070002A90CF05DFE064698F850
:102B90000030082B08D1D9F8001011F8030BC0F34E
:102BA00080100CF050FE0646D9F8001095F857201A
:102BB00011F8030B05F15803C0F380100BF008FF68
:102BC000D9F80010044611F8030BC0F380100BF085
:102BD0002AFF814602F03CFA40B1B9F1080F1CD03F
:102BE000484602F059F980F00100C0B298F8002080
:102BF000082A16D09CB96B7F991A4B424B416A88C0
:102C0000520706D420B99EB9EB7C9BB1BB4211D0D0
:102C10000023184605B0BDE8F0830020E6E7012355
:102C2000EDE714B180F00104E4B204F00103E6E73B
:102C30003346EEE70123ECE743889B07E8D50227FC
:102C400089E70529E4D180E7E40A0020032973B568
:102C5000054604D0052955D0012002B070BD0823D7
:102C60000DF107028DF80730FFF760FF0028F3D061
:102C70002B7C294E0BB39DF8070095F8B630E3B9CD
:102C80002B7885F8B730082805F1B9022BD005F16B
:102C9000B80102F037F920B940F6BA712D20FEF7DD
:102CA000F1F995F8B83043F0020385F8B8301B49C4
:102CB000022205F1AE000CF022FA30680024042153
:102CC000048002F0BFFA2846FFF738FD95F840204F
:102CD000E96B30680CF0B7F830680523337105F004
:102CE0004FF92046B9E73068034613F8031BC1F3D8
:102CF000801185F8B810D0F80310C5F8B9109B887A
:102D00009380D4E7064B1B6823B1984780F00100FD
:102D1000C0B2A2E71846A0E7E40A002013D20000E0
:102D2000440000202DE9F04786B008230DF10F0282
:102D3000052104468DF80F30FFF7F8FE074620B94D
:102D40000027384606B0BDE8F0877C4E3168F27C3B
:102D500011F8030B06F11403C0F380100BF038FEDA
:102D600080460028ECD1256A326895F8A5301178A4
:102D700003EA511303F0010385F8A530D2F80F30B0
:102D8000EB61537D117D1B0443EA0123D17C0B438E
:102D90006B62B2F819000BF03BFF3368A861014683
:102DA0000190987D0BF038FF3368A8850199B3F83E
:102DB00017000BF03AFF3368A862B3F81B202A848F
:102DC000B3F81D206A8493F8242002F01F0285F8CE
:102DD000B120D3F81F00049093F823308DF81430FD
:102DE00004A905F1A5000BF057FF336893F82430D0
:102DF0005B0985F80D3240F20113A5F86C304FF0F5
:102E0000FF0A05F1340085F86EA0414602F018FC77
:102E1000284694F912100BF0F1FE256A84F87380AD
:102E20002B88A4F8743084F891A04FF6FF73A4F8AF
:102E30009230A8699DF80F900BF0E4FE2B8CA4F85B
:102E40008C306B8CA4F88A00A4F88E3095F80D3283
:102E500084F89030237F04F17E0283B394F85030DD
:102E6000012B2CD194F8563003F0C003402B26D10F
:102E7000D4F85130C4F87E30B4F8553030689380BF
:102E80000346B9F1080F13F8032BC2F3801284F83C
:102E90007720D0F8030004F1780204F1840144D0D3
:102EA000C4F884009B888B80484604F1770102F0C7
:102EB00029F840B940F64A412D20FEF7E3F80023F7
:102EC000C4F87E30DAE794F8773043F0020384F8F0
:102ED00077301B49022204F16A000CF010F9236AD2
:102EE00018491A88A4F8AB2093F8A53084F8AD30BF
:102EF000022204F1A2000CF002F9134B206A1B68B5
:102F0000002232710BB1214698473368226AD3F808
:102F10000310C2F80310B3F80710A2F807101B78CB
:102F2000226AC3F3801393700BE7A0679B8893809A
:102F30000023C4F884308B80CBE700BFE40A002074
:102F40002BD20000FDD100004800002007B50D4B3A
:102F50001A799AB11A79D869022A02D01A79032A01
:102F600007D19B7C2BB1019005F078F804F006FAAC
:102F7000019803B05DF804EBFFF728BC03B05DF8DF
:102F800004FB00BFE40A002010B50948037903F0F0
:102F9000FF0453B918222146043009F015F905F051
:102FA0005DF804F0EBF9204610BD0C24FBE700BFF0
:102FB000E40A002010B5094C002323712060FFF7BC
:102FC000E3FF20B140F21E312D20FEF75BF8236AAB
:102FD00013B940F22131F7E710BD00BFE40A002029
:102FE000014B024A1A627047E40A002004330000D1
:102FF000034B044A1A60044B044A1A60704700BF2E
:1030000044000020252D000048000020C93E00009B
:103010002DE9F041067DB31EDBB2012B04468CBFC7
:103020004FF000084FF001087EB3B71E18BF01270C
:10303000012B36D800F1580190F857000BF0F3FC43
:10304000082805462DD001F033FF58BB657784F87A
:103050001C8084F8507001F04FFF05460CF0C3FD52
:10306000174BA5FB0335181845EB01050022C4E9F1
:10307000120584F85E2011462046FFF771FB70B9F7
:1030800040F2B6412D20FDF7FDFF3746082504F13B
:103090005101002001F0D6FD0028D7D10020BDE865
:1030A000F0810825022EF2D0E37E002BF6D0D4F872
:1030B0001530C4F85130B4F81930A4F85530C5E7CC
:1030C00040420F002DE9F041604D2B7988B0044655
:1030D00003F0FF07002B40F0B7800378FF2B00F0D0
:1030E000B3805B4B04935B4B05935B4B06932B6A5E
:1030F0006F715B6880F8697004A807932F82AF60D6
:10310000AF7104F035FF04F0C1FC04F0A7FF04F038
:1031100035F9524804F04CFD514804F023FF04F106
:10312000280001900AF047FA01980AF049FA04F0E1
:1031300065FD2179252004F06BFC94F9120004F060
:1031400031FD2179384604F029FEE86028B90123D1
:103150002B71384608B0BDE8F08104F13401206BD2
:1031600009F0ABFF04F13C018046206B09F0CAFF77
:103170000646B8F1000F03D094F82430002B3DD15F
:103180000EB194F82560237F13B963885A070AD5D6
:10319000D4E912126FF000439A4208BFB1F1FF3F29
:1031A0002ED1002E34D12868033001F0C9FE638887
:1031B000A874DB07CDD50023266ACDE90233FF23AF
:1031C000EB7406F10A0802A8FEF7F2FB0028C0D152
:1031D000029CA642F7D0727A607A434604F10A0153
:1031E0000BF0F6FB0028EED0A378EB74D4F80300C4
:1031F00068611C4BB4F807209A80AAE70126C2E751
:103200000CF0F1FCD4E91223904271EB0303C8D314
:10321000012206EA02012046FFF7A2FA68B101F096
:103220006BFE06460CF0DFFC0F4AA6FB02321818B4
:1032300042EB0102C4E91202B5E7002EB3D040F61A
:1032400014212D20FDF71EFF0C2782E7E40A002041
:10325000B12A000011280000052B0000D6BE898E7F
:1032600055555500F80A002040420F0038B5054674
:10327000FFF728FF044638B9044B1B79012B03D014
:1032800001462846FFF71AFB204638BDE40A002015
:10329000024BD8611B6A1B68184700BFE40A002074
:1032A00008B5044B1B79012B01D1FFF78FFA0020E1
:1032B00008BD00BFE40A002043881B0710B5044680
:1032C00012D5036A0A493C2280F873201B88A0F8B3
:1032D0007430FF2380F891304FF6FF73A0F89230DE
:1032E00002226A300BF00BFF012384F8693010BD15
:1032F0002BD200004D2C0000592A00008BD2000078
:1033000085D200006D3200004D2F0000A12A000080
:1033100000330000F8320000F432000001380228C7
:1033200008B503D9CA212F20FDF7ACFE13290A4B9B
:1033300005D811290CD8102907D0D821F3E7152971
:10334000FBD103EB4003D88801E033F8100008BD3F
:1033500003EB40039889FAE7E450020008B5431EE6
:10336000DBB2012B05D91D291ED0EE212F20FDF740
:1033700089FE10390D291BD8DFE801F0071A111159
:103380001A0C1A1A1A1A1A1A1A160B4A02EB4303C3
:10339000588A08BD084A02EB4303D88AF9E7064A6F
:1033A00002EB4303588BF4E740F25A335843F0E7FB
:1033B0004FF48171DAE700BFE45002000B2808B532
:1033C00004D940F24F310620FDF75CFE014B33F883
:1033D000100008BD045102002DE9F04F2DED028BC5
:1033E0008BB0044615460293894690F86DB00BF0F9
:1033F000DFF9064694F80D02FFF7E0FF94F89E30DF
:103400000393304485F0010386B2059355BB94F8CD
:103410005432032B26D1039B0D2B23D1B4F8B432A5
:103420004B451FD1D4F85C32C4F84832A369B4F8D4
:103430002622C4F84C32B4F89A321344C4F85032FD
:10344000204603F0F1FED4F8B832A362B4F8B632E5
:10345000A385D4F8BC32A361D4F8C032236202231E
:1034600084F85432B4F89872B4F89480A9EB070742
:103470003FB204F51C73002F08EE103AB7BFD4E931
:10348000A223029BC4E9A42301230493CD4BA9EBFF
:1034900008081B780FFA88F8B8BF474603F0FF0505
:1034A000002B53D005F0CCFA00286FD0B4F83C3292
:1034B000012B6BD994F85432022B67D094F86A52DE
:1034C000002D63D194F80D02FFF778FF94F8543281
:1034D00000F5C860012B86B2D9B24AD194F8A13068
:1034E000D4F828A0032B3ED1D4F84C525544314691
:1034F000D4F84C0205F0FAF9D4F84832C4F848027E
:10350000A0EB030AD4F850323146284603FB0AFAEE
:1035100005F0ECF9D4F85852C4F85802451B31466E
:10352000A06905F0E3F9AA44B4F82652D4F8503261
:103530004544ED1BDB432B44D4F85C52451B05FB93
:1035400003A50123C4F85C0284F86A3294F854326B
:10355000DFF870A2032B00F28081DFE813F019007E
:1035600014016900350128460BF032FB00EB0A0517
:10357000BDE7A069314605F0B9F9B4F82652D4F890
:103580005C324544ED1BC31A5D43DAE70025DDE7F5
:10359000012100200BF01CFB8046A06A314640440C
:1035A00005F0A4F93146C4F85802A06905F09EF967
:1035B00007A9C4F85C0208A804F092FD079B0093D9
:1035C000D4E9A401DDE9082308F02CFA07462046D7
:1035D0000AF076F9D4F8A032A66A94F86D001E4479
:1035E00004F0ACFED4F85812A38D203E761AB044F5
:1035F000A8EB070800F5234030314FF47A7703EB4E
:103600004101A130B0FBF7F0A8EB000794F86D0082
:103610000AF020F8D4F8A032FB1A2230B3F5C87FA4
:10362000CAF8040055D840F2ED413020FDF72AFDDC
:10363000A36AD4F84C023146184405F057F93146D4
:10364000C4F85802A06905F051F9C4F85C0220469C
:103650000AF036F9B4F82632A66AD4F84C72002B78
:1036600040F08C80029B002B00F0888094F86DB0B5
:10367000584604F063FE3E44D4F8A412D4F85832FD
:1036800004938046203E58460E4404F04FFE049BAF
:10369000F61A361A08F523484FF47A7708F1A1088C
:1036A000B8FBF7F8A6EB0807D4F85812D4F848325C
:1036B000D4F8502294F86D00303102FB0311A38D31
:1036C00003EB410109F0C6FF0123CAF8040084F8A6
:1036D0005432A669D4F85C32A6F21B26F61ADAF840
:1036E00004309E4228BF1E466E23A4F87832D4E9E7
:1036F000A4327F1BDF1942F100024FF00008C4E939
:10370000A072C4F8206284F8708204F134000BF0D7
:1037100083FDB4F81012A4F89892D4E9A023A1EB89
:1037200009090FFA89F9C145C4E9A423C8BF0223D6
:1037300084F87A82C8BF84F87A32039B30440D2B18
:10374000C4F87402029B00F08B80002B40F089804B
:1037500094F85432002B00F0A280A169D4F85C32B6
:1037600018EE100AC91A0BF0D8F980B2002800F040
:103770009680169B03B118800120A0E0D4F858026F
:1037800037443F1A90E7D4F85C22A369D4F850027A
:10379000D4F848129B1A5F43B4F826329844C343C6
:1037A0009844D4F85832303301FB0033A18D94F89B
:1037B0006D0002FB083301EB430109F04BFFCAF82F
:1037C000040086E7080B0020A369D4F85C021B1AEA
:1037D0005F4394F89D30252B03D094F89E30252B21
:1037E0000AD1B4F8B432A9EB03031B0404D494F84F
:1037F000B732002B18BF9B46049B03B3B4F82632A4
:10380000EBB9D4F8A43213B940F23F510DE794F864
:103810006D0004F093FDD4F8A4320646203B94F8E2
:103820006D00049304F082FD049B1F44381A06F5D2
:103830002343A1334FF47A77B3FBF7F7C71BB4F8F0
:103840002612D4F85C32414459433031490058467D
:1038500009F000FF1C4B58603BE740F25451E4E68E
:10386000EBB1B4F83C1221B3B4F83E2294F84032E4
:10387000A4F83E2202FB0333994202F101000EDD5F
:1038800094F87A325BB1002384F87A32A4F83E02CD
:1038900001F05EFF00F00700013084F8400218EEEE
:1038A000101A94F89C0207F0B5F820B940F29D5127
:1038B000BBE60A46DAE7059B84F8683200200BB0C5
:1038C000BDEC028BBDE8F08F080B00202DE9FF4115
:1038D000044618B994213020FDF7D4FB082900F2E2
:1038E0003281DFE811F0090080008A008A0085003B
:1038F00030011C0124012E010023C0F8A43290F8ED
:103900006832B0F89420002B65D0B0F8663293424C
:103910005BD1B0F81422A0F89420D31AA0F8163284
:10392000D4E9A0232046C4E9A22303F061FB94F864
:103930001B32002B00F0B680A569D4F85C32DFF8AA
:1039400010829D4288BFED1A98F8083098BF002574
:103950001BB9636B9D4228BF1D4604F134000BF078
:103960005BFC064694F86D0004F0E8FCD4F82032C5
:1039700003F24517BB1900F55F404FF47A774130E9
:10398000B0FBF7F01F18022007F07EFDEE1B26EAC1
:10399000E676864228BF06460221304607F0C2FD81
:1039A00000B9374440F27922394620460BF080FCBA
:1039B000D4F82032C8F80C00A069184407F008FDBC
:1039C00000286FD140F2A33185E79A1AA0F8162299
:1039D000A4F89430A4E7B0F864329A1AA0F816223A
:1039E000B0F86432F4E704B0BDE8F0410CF05DB823
:1039F00004B0BDE8F04104F07FBB0CF0F4F8D4E96A
:103A0000A223801A61EB0301012871F1000302DA9D
:103A100040F21A615FE76FF0010383424FF0000349
:103A20008B4102DA40F21B6155E7A3690BB1B0FB91
:103A3000F3F394F89E10B4F866220D2935D10132C3
:103A4000A4F86622B4F89A32B4F894500133A4F87A
:103A50009A32B4F8CE301D44B4F8CC30013DED1AA2
:103A6000ADB20DF10E06B4F866126B1A1B0436D512
:103A700094F8A1303549002B0CBF3E23082384F86D
:103A8000BF3004F1B6000BF046FB20460CF00FF8F7
:103A9000002384F8543294F89C0206F05FFE202341
:103AA00084F89C3204B0BDE8F081B4F894100B4463
:103AB0009BB2D11A090454BF531C01339BB2A4F822
:103AC000663294F86932002BBCD1B4F81432B4F8E1
:103AD0006622934204BF0133A4F86632B2E70023A2
:103AE00000961A462046FFF777FC0028DAD0012816
:103AF00012D1B4F86622B4F81012BDF80E30134497
:103B0000521A12049BB204D5EA1A12F4004F18BFDD
:103B10000B46A4F86632A6E740F25A61DBE60120C4
:103B200004F0AEFE04B0BDE8F04109F065BB90F8CA
:103B30005432042B01D0B821CDE6002380F8543252
:103B4000B0E7BE21C7E6C221C5E600BFB5F300005D
:103B5000080B002090F8E0302DE9F04104460D46B6
:103B6000164603F0FF0813B10C20BDE8F0810146B2
:103B7000474806F0C9FD20280746F5D050224146A7
:103B800004F1C00008F020FB012384F8C070C4F8E1
:103B9000C45084F8E03035B101F0F2FD00F00700C8
:103BA000013085F84002204609F067FD00274FF4F8
:103BB0008173A4F8F230A4F8F00084F8E87004F0FF
:103BC000C5FEB4F8F050D235284485B2204609F03D
:103BD00080FC014668B30AF0EBFD00F5CD6081B2D0
:103BE000304604F083FE3044C4F8EC000BF0FBFFD9
:103BF000281841F10001C4E93E01012084F8C80001
:103C0000E78409F023FDDB3E361AC4F8CC604FF0A0
:103C1000FF326FF00043C4E9402394F8C00004F180
:103C2000E80106F0F7FE30BB40F2E9113020FDF765
:103C300029FA204609F072FB164FDB30C4F8EC007D
:103C4000388A40B1E08C30B101F09AFD3B8AB0FB7C
:103C5000F3F202FB130005440BF0C5FF2D1841F1F0
:103C60000001C4E93E51002ED1D0751941F1000187
:103C7000C4E94051D1E7D4E93E2300252046C4E9F8
:103C80003623A4F8E250294609F03FFC28466CE7A9
:103C900013D70000080B0020F0B5002385B0CDE954
:103CA000003301238DF806306846FDF781FE70B1C0
:103CB0001B4E0123B3740027CDE9027702A8FDF75C
:103CC00077FE0546A8B10020B07405B0F0BD00989D
:103CD00009F035FEE8E790F89C0207F057FD94F8EC
:103CE0009C0284F8545206F039FD202384F89C325B
:103CF000E2E7029B002BE1D093F89C22202ADDD042
:103D000018884FF6FF739842DDD02946FDF718FE5C
:103D100004460028DFD140F21F113020FDF7B2F930
:103D2000080B0020054B002201211A7219709A74A9
:103D300042F210721A82FFF7AFBF00BF080B0020DB
:103D4000014B1872704700BF080B002008B503F044
:103D500059FE044BDA6882422ABF987C002080F02A
:103D6000010008BD080B00202DE9F74F0446052986
:103D700000F2A580DFE801F003806D7D849ED0F81D
:103D8000A432002B53D090F86A32002B4FD090F819
:103D90005432032B4BD190F86DB00AF009FD074661
:103DA00094F80D02FFF70AFB814607445846D4F801
:103DB000A45204F0BBFAA5EB0008584604F0BEFA82
:103DC00000F2E7335846D4F820624FF47A7AB3FB16
:103DD000FAF3A8EB030804F0A9FA361A584604F0DF
:103DE000ADFA00F52340A130B0FBFAF0321A5108C9
:103DF000A2F16003BFB209F5C86929317B431FFAFC
:103E000089F9B3FBF9F360335A08A1EB53039845E2
:103E100002D31144884501D904F0FEFFA069394658
:103E200004F064FD0023C4F85C0284F86A32254B78
:103E30009B7C03F0FF0263B9B4F8141200920123D3
:103E40002046FFF7C9FA38B140F2E4613020FDF7AF
:103E500019F9042384F8543203F05AFF06F0BAFA31
:103E6000B4F89420A4F866220023A4F89A3284F8C7
:103E7000693203B0BDE8F08F032380F85432F8E7CD
:103E800003F0BAFD0546C4F8A40294F86D0004F0EE
:103E90004DFA854202D24FF46A71D7E794F86D006B
:103EA000D4F8A45204F042FA064BDA6815442D1AED
:103EB000DD60DEE703B0BDE8F04F09F001BD4FF46F
:103EC000EE61C3E7080B00202DE9F84306460C46D7
:103ED00015468ABB03F096FD0121D4E93E890746C9
:103EE00084F8E050D4F8C40084F8C85084F8E11095
:103EF00001F0E8F8D4F8C400C0E9A28994F8C02021
:103F000080F89C22C0E9A489C0F8A07209F0ECFCFA
:103F100020B140F227713020FDF7B4F803F0F8FE2D
:103F200006F058FA074994F8C000324604F098FCAD
:103F300028B940F28371EEE740F29A71EBE7BDE8F1
:103F4000F88300BFCD380000014B1882704700BFD6
:103F5000080B0020F0B5070CA7F5AA42144B543A01
:103F6000012A03EA90231FD927F4004042F6AA222F
:103F7000801A18BF01200022162116461F2487EA46
:103F8000060562EA0505013510D0DD03ADB245EA4C
:103F90005606E503ADB2013945EA52024FEA530332
:103FA0004FEA5404EBD1F0BD0020E4E70020FAE72B
:103FB000E0FF3F0010B501210020FDF7C1FC0446E1
:103FC00070B90121FDF77CFC044620B940F21D3197
:103FD0003920FDF757F8034B93F9001009F066F903
:103FE000204610BD200B0020304BF0B55A88B0F8A9
:103FF0006070B0F85E609D88974228BF1746964271
:1040000028BF16461B2E85B00C462ED0B5F5A47FD2
:104010002DD040F648039D4201A928BF1D4609F056
:10402000B9FEBDF80A309F4228BF1F46BDF80C30CC
:10403000E780AB4228BF2B462381BDF806309E4265
:1040400028BF1E46BDF8083066809D4228BF1D4629
:10405000A580FF232370E3881B3B9BB2E02B08D98C
:104060004FF4B5613920FDF70DF81B2FCED105B007
:10407000F0BD63881B3B9BB2E02B02D940F2AA51F2
:10408000F0E72389A3F5A4739BB2B3F5E06F02D9DF
:1040900040F2AC51E6E7A388A3F5A4739BB2B3F555
:1040A000E06FE4D940F2AE51DCE700BF200B002006
:1040B00008B50AF08CFC00F007FF00F0E3FB0BF002
:1040C0001CF801F097F801F089FE01F0ABF8084BFD
:1040D0001B224FF4A4715A809980064B06499A809E
:1040E00000221960DA825A821A835A7408BD00BF0E
:1040F000200B0020380F002003021B00044B41F668
:104100004C52C3E902221B221A74FFF7D1BF00BF31
:10411000380F00202DE9FF41344DAB68044640F8CC
:10412000343F09F042FC064600F09CFB10F0200FE3
:1041300008BF1B222B7C1DBFAA886988A4F85E10CB
:10414000A4F85E2084F83C30A4F86020E68700F0F4
:1041500089FB8B0706D5012302A88DF8083003944C
:1041600009F039FDAE7CEF7CB5F8148041F64C5374
:10417000A36116B900F07CFB064657BB00F078FB44
:10418000074646B338B302A920468DF808608DF87B
:104190000970ADF80A800AF017FD6B7801932B784F
:1041A00000936A88AB8804F1140104F11000FDF754
:1041B00037FC236913B940F27F5114E0636913B9E6
:1041C0004FF4B0610FE0002004B0BDE8F081092099
:1041D000FAE7002ED7D120880021FDF7C7FB002881
:1041E000F5D040F272513920FCF74CFF380F002017
:1041F000F7B505460E4609F08CF8002873D028461E
:1042000009F067F940B1B6F80130013B7F2B03D9C3
:104210001224204603B0F0BD284609F05EF908B923
:104220000C24F6E7284609F081FC0028F8D128463E
:1042300009F02DF804460028F2D12846FEF7E8FEE2
:104240000028E5D0B6F80170F17842F210722846E5
:10425000574309F02BF9284609F033F9014658B9BC
:104260003A462846FFF776FC04460028D1D041F2B2
:104270009C713920FCF706FF21460DF10600FDF781
:10428000E7FA064668B3214600F01CFFBDF8063089
:1042900033802846314609F02AF9284609F023F9E7
:1042A00098B9284609F021F901463046FFF732FF58
:1042B00004460028ADD13A4631462846FFF74AFC6D
:1042C000044620B141F2BF71D3E70121EDE7074B6E
:1042D0009B68002B9DD0024606F5997130469847A1
:1042E00097E70D2495E7422493E700BF200B0020B9
:1042F000034B5A8802801B7883700020704700BFF0
:10430000380F002037B583781A2B054609D8042BBF
:1043100005D9012202FA03F3134A134205D11224EC
:104320001AE0292B01D03B2BF9D12888B0F5706F0A
:10433000F5D269460AF09AFB88B9019B93F83021BF
:1043400002F0FF046AB9AA7883F83121FF2283F8CA
:10435000302168460AF0ACFE204603B030BD02248E
:10436000FAE70C24F8E700BF200038040188A1F127
:104370001B039BB2E02B0CD84288A2F5A4739BB21E
:1043800044F24810834204D8034B002059809A809D
:1043900070471220704700BF200B0020034B5A8843
:1043A0009B88028043800020704700BF200B0020C4
:1043B00038B504784278857804F0010352EA0301A5
:1043C00004F0020401D1112038BDBCB9002DFAD08F
:1043D000002B08BF144601E000242546204609F0C2
:1043E00092FC0028EFD0284609F08DFC0028EAD086
:1043F000054B00209C74DD749882E5E7002BEBD11F
:1044000014461D46EAE700BF380F002013B50088A8
:1044100069460AF02BFB18B10224204602B010BDF9
:10442000019A92F85432DBB292F8BE20002AF3D1FE
:1044300013F0FB0FF0D0019890F842310BB13A2401
:10444000EBE790F8E63003F0FF04002BF7D190F88B
:10445000DD309B0706D1012380F8423168460AF01F
:1044600027FEDAE702490222DE300AF05AFED4E7DC
:104470009FF70000F0B50778EF2F85B004460D4692
:1044800003D91225284605B0F0BDB0F80130ADF8CB
:104490000C309DF80C30DA063FD49E0603F0030280
:1044A00038D5002AEDD11807EBD46378190711D459
:1044B0002179E278E07942EA0122617942EA014217
:1044C000A17941EA0021207A41EA00418A42D8D804
:1044D0001F2AD6D9627A013A062AD2D8A27A032AAA
:1044E000CFD813F0040102D1023A012A03D8E27AAC
:1044F000012AC6D811B9A27C032AC2D813F0100130
:10450000227D19D0012ABCD1227E012AB9D8B1B9A5
:104510001125B7E7032AC6D1B3E713F0600FB0D176
:1045200003F00F0203F00703052BBED0931E012BEF
:10453000BBD9002AA5D1B8E7022AE5D1A1E7DA075D
:104540001FD46378227D03F0180108291ED1022AA6
:10455000DED11B0709D4E279A37943EA0223227A48
:1045600043EA0243B3F5804FD2D8BFB201213846A7
:10457000FDF7E6F9064678B109F0D8FAB8B10C258E
:1045800080E700F031F90028DBD1C1E7022AE0D052
:10459000A27E002ADDD0BBE701213846FDF790F965
:1045A000064650B3164B93F9001008F07FFE3046D4
:1045B00008F084FF21462870E074304608F0CAFEF7
:1045C000637E0546002B3FF45DAF00287FF45AAFB1
:1045D000316B02466846FDF7EBFA306B2A46012143
:1045E00008F04EFD316B68460422FDF7E1FA306BAE
:1045F0002A46294608F044FD44E7072542E700BF64
:10460000200B002070B50579042D8AB0034658D8D8
:104610004488B4F5804F54D82B48465D2844002187
:104620004279857AC07BADF8041042F0100242EA6C
:10463000460242EA850242EAC00202F01F028DF8F9
:104640000420BDF80420ADF80D201A888DF80F2045
:104650008DF81240120A240A8DF811108DF81410EA
:104660008DF810208DF813405A7B8DF815205A795B
:104670008DF816209A79D3F807008DF81720B3F833
:104680000B209B7B8DF81E307F238DF81F3001237C
:104690008DF80C1006908DF82110ADF81C208DF8C7
:1046A00020308DF8223003A88DF823108DF82410C7
:1046B0008DF825108DF8261001A9FFF7DBFE0AB052
:1046C00070BD1220FBE700BF2851020002780346AC
:1046D00072B1427862B142881A2A09D982881A2AAC
:1046E00006D9044A006810609B88938000207047B8
:1046F00012207047380F0020024B02689A60002099
:10470000704700BF380F00200378A3F10A02112A76
:104710009DBF024A0020137412207047380F0020FA
:1047200008B5052000F090F802F0ACFD014B024AFC
:104730009A6008BD200B0020E93F000008B5FEF795
:104740004FFCFFF7EFFABDE808400148FEF732BC26
:104750002C0B002010B50B4C012384F80231FEF71E
:1047600047FC01F0E5FE0AF030F904F2031120469F
:10477000FDF7F2FB002008F029FCBDE8104000F036
:104780009FBE00BF2C0B002010B5064C064904F557
:10479000027009F0CFFF04F503700449BDE8104032
:1047A00009F0C8BF2C0B00204C0000205400002052
:1047B00010B5094C094904F5027009F0BBFF04F576
:1047C0000370074909F0B6FF04F504700549BDE818
:1047D000104009F0AFBF00BF2C0B00206400002088
:1047E0006C0000205C000020014B93F80201704730
:1047F0002C0B002010B5074C00F05AFED4F808022C
:1048000009F090FFFFF77AFC00F0D2FF012384F853
:10481000143210BD2C0B0020014B93F8140270478A
:104820002C0B002010B5074CD4F80C0209F07AFFCD
:10483000D4F8100209F076FFFFF73AFC002384F861
:10484000143210BD2C0B0020C2080549012300F0D2
:10485000070003FA00F08B5C18438854704700BFD0
:1048600010000020014BD3E9000170471000002028
:10487000034B1868C0F30020400040F0010070476F
:104880001000002008B504F05BF8084A002332F855
:104890002310814205D302EB83039B78044A1370F3
:1048A00008BD01330C2BF2D10023F7E73C51020085
:1048B000410D002010B544682388A4F89D3194F878
:1048C0006C3084F89C11012B06D0022B04D04FF4DD
:1048D00022710620FCF7D6FB84F89F3194F86D30E6
:1048E000012B01D0022BF2D184F8A031044902221D
:1048F00004F293100AF015FC002384F83C3110BD3B
:10490000B5E70000406808490388A0F88F3190F8A7
:10491000643080F8913190F8653080F8923100F57C
:10492000C3700AF0F8BB00BFCBE700002DE9F743E6
:10493000456895F89E3095F89D80232B04460F46D8
:104940002DD19E3538460AF092FB00284DD03846CE
:104950000AF087FB814638460AF085FB014609F0DC
:1049600088FF6668034648B396F86C20904225D0CD
:1049700096F83C0101280CBF96F83E0196F86800B5
:10498000014232D0B8F1210F18D096F865000142EB
:1049900014D152B94FF4B6710620FCF773FBB8F18D
:1049A000210F40F0B3809D35CCE7042A01D0042BC1
:1049B00031D1934294BF00230123B3B9484609F093
:1049C00058FF002849D096F86D30834245D096F8BC
:1049D0003C31012B0CBF96F83F3196F8693019EA4B
:1049E000030F14BF01230023BBBB636893F83C2172
:1049F000012A19D11E212046FFF75CFFB8F1210FD3
:104A00001FD1FA786368182A83F8212110D040F268
:104A10006D217E20C1E7082ACBD0082BC9D0934254
:104A20002CBF00230123C8E7002283F83C21E5E7DF
:104A3000092283F89D2093F8D63093BB40F275216C
:104A4000E7E7002320462B700AF07CFC394620461D
:104A500003B0BDE8F0430AF099BC304601AA3946DC
:104A600009F014FFD4F804800646F8B998F83C31F0
:104A7000012B18D101462046FFF71CFF2E706368FA
:104A800003F19E02954202D1002283F89E206368C2
:104A900003F19E0295424FF0000534D120460AF002
:104AA00051FC002033E088F83C01E8E738460AF082
:104AB000DCFAA8F8B4026068B0F8B432B0F8942018
:104AC000013B9B1A9BB247F6FD72934207D92823FC
:104AD00080F8BF300F49B6300AF01DFBD7E790F8D9
:104AE0009E300D2B02D00A3B012B01D82A23EFE781
:104AF0009DF8043080F8B6329DF8053080F8B73262
:104B000025232B70C3E783F8D650CAE7022003B0F1
:104B1000BDE8F083B5F30000044B002283F82220A7
:104B20004FF6FF729A84DA841A857047420D00208E
:104B3000054B9A8C824201BF002283F822204FF657
:104B4000FF729A84704700BF420D0020014BD88449
:104B5000704700BF420D0020084B998C4FF6FF7242
:104B6000914206D193F82220012A04D0036001204B
:104B70007047002303600020704700BF420D0020F3
:104B8000064B93F82220012A1FBF0120DA8C83F8FC
:104B900022009A8408BF0020704700BF420D002009
:104BA000014B1885704700BF420D0020064A918CCA
:104BB000138D994205D192F8223013B10260012081
:104BC00070470020704700BF420D0020094B998CB0
:104BD0001A8D914201D0002070474FF6FF729A84DF
:104BE00093F82220002AF6D0002283F82220012008
:104BF000704700BF420D0020054B998C1A8D9142E1
:104C000003BF93F82200B0FA80F0400901207047FA
:104C1000420D002050B90A4A1346012003F8010B47
:104C20000868C2F801008A889A807047012805D177
:104C3000034B0A689A608A88D8719A81704700BFCE
:104C40006C0D002048B90A4B187880B1D3F80120C8
:104C5000B3F805300A608B807047012806D1044BF9
:104C6000D87920B19A680A609B89F4E700207047E0
:104C70006C0D002020B9054B187800F0010070473A
:104C800001280ABF014B0020D879F6E76C0D0020FF
:104C9000F0B51A4B93F800C006460025E8B28445EB
:104CA00001D8082029E093F853410A7893F854E199
:104CB00093F85871624093F85241744022444C7802
:104CC00084EA0E04224493F855E18C7884EA0E04B9
:104CD000144493F856E1CA7882EA0E02144493F819
:104CE00057E10A7982EA0E0222444C797C40D44290
:104CF00005F1010503F10703D0D1F0BD7A0D0020C5
:104D000030B5094B01465C78002203F58173D0B2BF
:104D1000844201D8082005E013F8015B8D4202F1BE
:104D20000102F4D130BD00BF7A0D0020F0B5254D51
:104D300095F88A4189B0224605F28B11684607F042
:104D4000CDF92146684609F061FE0446B8B300EB90
:104D50004001C9B202A8FCF72DFB601E95F89361D3
:104D6000C0B2012495F88A2105E0731CB3FBF2F16F
:104D700002FB1133DEB206F120030DEB030111F843
:104D8000203C002BF1D100EB400220326A4406EBBC
:104D900046032B4412F8187C83F8947112F8177CA0
:104DA00012F8162C83F8957183F8962101F8204C9F
:104DB0000138AB19C0B2FF2883F88B41D2D109B0BA
:104DC000F0BD00BF7A0D002070B505468CB00C46D2
:104DD000002A58D02E4890F89331C11891F88B21B1
:104DE00022B94FF480712820FCF74CF903EB430201
:104DF0000244013392F89461E67092F8956192F85A
:104E0000962162710022267181F88B2190F88A2107
:104E1000B3FBF2F102FB113380F8933190F8B43117
:104E200023B91C4900F5D6700AF078F9667906F0C6
:104E30003F0646F0400666710D22002104A807F0E7
:104E4000C3F9E3788DF81F3023798DF81E302B4697
:104E50008DF81D606D4603F11006186859682A46E2
:104E600003C20833B3421546F7D1684606F0FCFE8C
:104E70009DF82F3023709DF82E3063709DF82D30F3
:104E8000A3700CB070BD03216018FCF793FACDE756
:104E90007A0D00202D4D0000044B5A78824286BFC7
:104EA0001B1893F84A010020704700BF7A0D0020BC
:104EB000044B5A78824286BF1B1893F842010020A7
:104EC000704700BF7A0D0020074B00224FF461713C
:104ED0001A705A7083F8B52183F8B621A3F8B81177
:104EE00083F8B421704700BF7A0D0020014B83F88E
:104EF000B60170477A0D0020014BB3F8B801704736
:104F00007A0D002010B50D4B5C78844214D91844FA
:104F100090F80201C0EBC0041C4494F852410C709C
:104F2000072140F2531411FB004158185B581360DD
:104F300083889380012010BD0020FCE77A0D0020BB
:104F40000246074810B590F8B54124B1417821B127
:104F5000023002F0E1F9204610BD0C46FBE700BF2D
:104F60007A0D00202DE9F74F2F4C00921A466378F6
:104F700083428046894654D9231893F8425185F0DC
:104F80000105E9B193F84A31D3B945F0020701357B
:104F9000C2B9F9070BD5062101FB084104EB081043
:104FA00001F5857182300092FFF70EFF009ABB0772
:104FB00033D504EB081049460230FFF705FF2CE01B
:104FC0002F46E5E794F893614FF0010A002DE0D0F9
:104FD00004EB060B9BF88B1199B9009B0192D3B19E
:104FE00000F0B6FB06EB460121444FEA102C81F895
:104FF0009401019A81F895C1000C81F896018BF813
:105000008BA194F88A110136B6FBF1F001FB106612
:10501000F6B2013DDAE747F00407384603B0BDE8D1
:10502000F08F0027F9E700BF7A0D0020074B5A7870
:10503000824209D91A1892F842212AB9062202FBA3
:10504000003000F585707047002070477A0D002011
:10505000064B5A78824281BF1B1893F83A01B0FA86
:1050600080F0400998BF0020704700BF7A0D0020F3
:1050700030B50024A0F84C40B0F8504042F2107512
:105080004C43B4FBF2F4A0F85040541E05FB03431C
:10509000B3FBF2F3A0F84E30094BB3FBF2F301334C
:1050A000A0F85430B0F8483005FB0344036CB4FB5F
:1050B000F2F459434464B1FBF2F2026430BD00BF24
:1050C000005A620270B504460D4649BB4FF438726F
:1050D00007F07AF8012384F8A530492384F8ED30ED
:1050E000042384F8EE306FF03B0384F8EF3007239D
:1050F00084F8F0302B2384F8EC30FE2384F826313A
:105100007F2384F899301F4BC4F88830202384F81B
:10511000F15084F8F25084F8F35084F89C3270BD5A
:10512000012922D100238269A0F8263280F81B329F
:10513000154B1344B3FBF2F3C0F8C43040F6B83358
:10514000A0F8C8301146438C8030FFF791FF0AF079
:1051500014FE30B1E069FEF7FDFE10B984F80C5280
:10516000DDE7002384F80C32D9E70229D7D1B0F863
:10517000C232D0F8BC228169BDE870408030FFF7B0
:1051800077BF00BF00E0FCFF7FC3C901074B93F965
:1051900000301844142804DC10F17F0F03DB40B208
:1051A0007047142070476FF07E007047340F002066
:1051B00007B57F230DF107008DF8073002F05CFF83
:1051C0009DF9073068B10A4A5078404243FA80F0AE
:1051D000142808DC10F17F0F07DB40B203B05DF844
:1051E00004FB1846FAE71420F8E76FF07E00F5E7B5
:1051F000340F0020024B00221A705A70704700BF13
:10520000340F0020054B0168FF221A70044A116018
:105210000179117100221A70704700BF360F00200B
:105220001800002007B5064B186800901B798DF810
:1052300004306846FFF7E6FF03B05DF804FB00BFEB
:105240002180020008B5037801F00F0223F00F035C
:1052500013430629037003D8034B5B5C437008BDFE
:10526000A8212A20FBF70EFF6C51020043784BB1B6
:10527000C1782A2908D8054A0A44D079C31A584265
:105280005841704718467047012070476C51020022
:105290002A2908B5C17004D8064B1944CB7943704C
:1052A00008BDFF2904D04FF48D612A20FBF7EAFEE8
:1052B0000123F4E76C5102002DE9FF478A4602A959
:1052C0001646994609F0D2FB054600283FD1039FB8
:1052D00036B9012487F8A440204604B0BDE8F08721
:1052E000D7F810803146404607F074FC0446002889
:1052F000F2D0194B5B88B3422BD3014601AA40463A
:1053000007F0BDFD019B1D809D7097F8A4300198AA
:10531000002B0CBF5146022109F0F3FD01983246E3
:105320004946033006F0DAFE3146404607F087FC76
:10533000044618B97C212B20FBF7A4FE02A809F033
:10534000B7FE039BA3F8125287F8A450C4E70124C8
:10535000C2E72C46C0E700BF380F0020024B987D03
:10536000C04300F001007047380F0020034B987DC8
:1053700080F00200C0F34000704700BF380F0020EB
:1053800010B5094C14220021204606F01DFF122200
:10539000002104F1140006F017FF01232373231DDD
:1053A000C4E9003310BD00BF540F00207FB505468F
:1053B0000C4621B940F20B111020FBF763FE038865
:1053C0008B8000234B724669304607F04AFD014648
:1053D00010B94FF48A71EFE701AA304607F04FFD8C
:1053E000E08010B940F21911E6E7FB2802D940F23B
:1053F0001B11E1E7019809F08CFD012801D002287A
:1054000005D12072206828B94FF49971D4E740F291
:105410002B11D1E70199E288033106F05FFE304697
:1054200007F035FD10B940F23711C5E700213046CD
:1054300007F069FC10B94FF49E71BDE70A4BDA7DA5
:1054400082B11A8B2888013A02A91A8309F00EFB4F
:1054500010B140F24511AFE7039AB2F8B43001330E
:10546000A2F8B43004B070BD380F002010B520B9D8
:1054700040F271211020FBF705FE41600272EFF34C
:10548000108472B6094B1A1D0260596819B1097A65
:10549000012908BF1A601A681060186004B962B662
:1054A000BDE8104093F8260006F0B0BC540F002071
:1054B000024B83F82600FFF763BF00BF540F0020A4
:1054C000014B024A1A60704774000020AD5300007F
:1054D000F7B5514E514F054673681B7A102B06D114
:1054E000FB7D23B13B8B13B9002003B0F0BD3369C2
:1054F000ABB11B7A9BB13469002CF5D0237ADBB2B7
:105500000522023B22720E2B78D8DFE803F0192522
:10551000457777774E777777777777636A00746820
:10552000237A012BE0D0EFF3108372B67268126811
:10553000726003B962B6237A002BD8D03461DDE7FC
:10554000636823B94FF4E1711020FBF79BFD2946F6
:105550002046984704200FE0636813B940F2CB114E
:10556000F2E72946204698470346C3F30723012B59
:10557000ADF80400C0B244D0EFF3108372B6227AC3
:10558000052AD1B201D0002941D100222272326114
:10559000002B38D162B636E0636813B940F2D511FA
:1055A000D2E7204698470020E6E763680BB9E02180
:1055B000CAE70B222A701A88A5F8032000240122CA
:1055C00018696A71AC71AA70214607F09CFB3461BE
:1055D00004208AE715232B70D4F80930C5F803306E
:1055E000B8E7606810B940F23D21ADE70C4B2946A1
:1055F0001B68984700233361022076E740F246217A
:10560000A2E70323237200283FF466AF6DE7002B67
:105610007FF462AF62B65FE7540F0020380F0020BE
:10562000740000200448037F23B904490222143087
:1056300009F065BD704700BF540F0020F1F0000075
:105640001B234FF01B128384038482618382C26018
:10565000038539B94FF4A473034AC3844384C261F8
:10566000C3820261704700BF48014801B0F858206A
:105670000B46B0F84C109142F0B528BF1146B0F877
:105680005040B0F85A20B0F84850B0F84270B0F826
:105690004660A0F84210A24228BF2246B0F84A4015
:1056A000A0F84620944238BF14468D4238BF0D46BC
:1056B0008F42A0F84850A0F84A402FD1B61A18BF20
:1056C0000126B0F84E50B0F85440B0F856E0B0F8AB
:1056D00040C0B0F84470A54228BF2546B0F85240FB
:1056E000A0F84050744528BF7446AC45A0F844402B
:1056F00002D1A74200D19EB10088A3F80900A3F807
:105700000B50A3F80D40A3F80F10A3F81120BDE82B
:10571000F04004490222184609F003BD0126D0E7F3
:10572000F0BD00BF3BF100000B8BA2F80B304B8BA0
:10573000A2F80D308B8BA2F80F30CB8BA2F80900AA
:105740000249A2F81130104609F0E5BC7BF10000D7
:10575000094AD2E90003434083EAB01181EA4321B8
:105760004FEAF3435360054B116058434FEAF06032
:1057700000EB8000704700BF7C0F0020BB79379E94
:10578000094AD2E90203434083EAB01181EA432186
:105790004FEAF343D360054B916058434FEAF06002
:1057A00000EB8000704700BF7C0F0020BB79379E64
:1057B00038B50A4C04F1080508212846FBF7FAFD24
:1057C000D4E902231343F7D0FFF7DAFF2060FFF795
:1057D000D7FF236860600343F6D038BD7C0F0020FC
:1057E00070B5044640680D4690F89E2001230021C4
:1057F000803009F052F920B32846666809F0D6FBDC
:10580000A6F8B4026068B0F8B432B0F89410013B66
:105810005B1A9BB247F6FD718B4208D9282380F8AA
:10582000BF300949B63009F076FC002070BD00F2A7
:10583000B621284609F0B5FB63680A2283F89E204A
:10584000F3E70120F2E700BFB5F3000073B50446AB
:1058500040680D4690F89E2001230021803009F019
:105860001CF900284BD00021284609F06DFB30B907
:105870002946204602B0BDE8704009F087BD606847
:10588000B5F80D30B0F89420A0F8B432D2431344E8
:105890009BB247F6FD72934209D9282380F8BF30A6
:1058A0001849B63009F037FC002002B070BD284618
:1058B00009F041FB09F0ACF966680190C6F8BC023A
:1058C0000146287909F0A8F9A6F8B6020199B5F8B9
:1058D0000500666809F0A9F9C6F8B80228466668A6
:1058E00009F02CFBA6F8C0022846666809F029FBDF
:1058F0006368A6F8C2020D2283F89E20D4E7012037
:10590000D3E700BFB5F3000008B5406890F89E30BB
:10591000152B04D04FF493711F20FBF7B3FB012329
:1059200080F8DB30162380F89E30BDE8084003493C
:10593000022200F5317009F0E2BB00BF5DF5000006
:10594000436830B5D3F88C4014F001001DD14D6888
:105950000F4A8968A3F8D8002A40C3F8EC20C2F3A4
:10596000076242F0080221F4FF6183F8EF2093F808
:10597000DA20C904C90C013244F00104C3F8F01064
:1059800083F8DA20C3F88C4030BD0120FCE700BF6B
:105990002F4904F770B54468037894F89D200D46AC
:1059A00004F18000072109F078F870B36968194B99
:1059B000AA680B40C4F8EC3022F4FF62C3F307631B
:1059C00043F00803D204D20C84F8EF300023C4F86B
:1059D000F02084F8D63084F89D3094F8A92102F0A4
:1059E000FF06A2B92388A4F8AB3184F8AA616B68DA
:1059F000C4F8AD31AB680849C4F8B131022204F2F1
:105A0000A11009F07CFB304670BD0126FBE71E4665
:105A1000F9E700BF2F4904F78FF60000406890F8BF
:105A2000A9315BB90388A0F8AB311A2380F8AA31F9
:105A30000349022200F2A11009F061BB704700BFC8
:105A40008FF6000010B50446FEF70CFF044B21F45E
:105A5000FF61C9040340C90C6360A16010BD00BFB1
:105A60002F4904F737B50C464568FEF7FBFE094B96
:105A700095F8EC2021F4FF610340C9040093C90CA0
:105A800013408DF8003001916B4603CB6060A1603C
:105A900003B030BD2F4904F738B54468037894F853
:105AA0009D200D4604F18000082108F0F6FF18B98A
:105AB000D4F88C30980741D494F8DD3099071AD483
:105AC000284609F095FA84F8E700B5F80530A4F8FF
:105AD000E830B5F80730A4F8EA3094F8DD3043F048
